:100000000C9463020C9477020C9477020C947702A0
:100010000C9477020C9477020C947D300C94D830B9
:100020000C94B0300C94052D0C9477020C9477024C
:100030000C9477020C9477020C9477020C943B2C6E
:100040000C9477020C9492340C9477020C947702FF
:100050000C9477020C9477020C9477020C9446343B
:100060000C9477020C9444040C94C7020C9477020D
:100070000C9477020C9477020C9477020C9477021C
:100080000C9477020C9477020C9477020C9477020C
:100090000C9477020C9477020C9477020C947702FC
:1000A0000C9477020C9477020C9477020C947702EC
:1000B0000C9477020C9477020C9477020C947702DC
:1000C0000C9477020C9477020C9477027E048004DF
:1000D000B804B804B804B804B804B804B804B80440
:1000E000B804B804860488048A048C048E0490043E
:1000F00092049404B80498049A049C049E04A004F6
:10010000A204B804A404A604D909DF09E209E50998
:10011000EA09F209FA09980A980A980A070A0A0AE3
:10012000130A1C0A980A980A980A980A980A980AC0
:10013000280A320A3E0A460A490A520A5B0A610A3A
:10014000980A980A6A0A730A7E0ABA0C7C187C1804
:10015000C40CCF0CDA0CE50C7C18E90C7C18F70CFD
:100160007C18010D0B0D150D7C187C187C18250DC5
:10017000320D3F0D084AD73B3BCE016E84BCBFFD1C
:10018000C12F3D6C74319ABD56833DDA3D00C77F67
:1001900011BED9E4BB4C3E916BAAAABE0000008000
:1001A0003F05A84CCDB2D44EB93836A9020C50B98F
:1001B000918688083CA6AAAA2ABE000000803F00BB
:1001C0000C94FA090C9492040C94CF0C0C94320AFF
:1001D0000C94070A0C94D9090C94010D0C9490040A
:1001E0000C94250D0C948C040C94DA0C0C946A0A73
:1001F0000C94730A0C941C0A0C94E5090C94BA0C28
:100200000C94F70C0C94E2090C94490A0C949C048D
:100210000C94EA090C94F2090C949A040C94980436
:100220000C9494040C94A4040C940B0D0C94800472
:100230000C947E040C940A0A0C94A0040C943E0ABC
:100240000C9488040C94980A0C94520A0C948E0412
:100250000C947C180C94E90C0C943F0D0C949E04A7
:100260000C94280A0C94610A0C94DF090C94460A39
:100270000C94150D0C947E0A0C9486040C94A60420
:100280000C948A040C945B0A0C94C40C0C94B8046F
:100290000C94E50C0C94A2040C94130A0C94320DEB
:1002A0000D0A4772626C20312E3167205B272427AC
:1002B00020666F722068656C705D0D0A00244E0028
:1002C0005B4F50543A005B5645523A312E31672EFF
:1002D00032303138303831332E4D6567613A005B4A
:1002E000544C4F3A005B4739323A003330003238D1
:1002F000005B4700204700204D00205300204600AF
:1003000020540033382E005B47433A47005B484C8B
:10031000503A242420242320244720244920244EFA
:100320002024783D76616C20244E783D6C696E65A2
:1003300020244A3D6C696E652024534C5020244390
:10034000202458202448207E2021203F20637472DE
:100350006C2D785D0D0A00536C656570696E6700E1
:10036000526573746F72696E67207370696E646C26
:100370006500526573746F72696E672064656661AB
:10038000756C74730050676D20456E64004368653A
:10039000636B204C696D69747300436865636B20FF
:1003A000446F6F720044697361626C656400456EEE
:1003B00061626C65640043617574696F6E3A2055C3
:1003C0006E6C6F636B656400272448277C27245874
:1003D0002720746F20756E6C6F636B0052657365B8
:1003E0007420746F20636F6E74696E7565005B4D69
:1003F00053473A00414C41524D3A007C413A007C0F
:100400004F763A007C57434F3A007C506E3A007C5E
:1004100046533A007C4C6E3A007C42663A007C5768
:10042000506F733A007C4D506F733A00536C6565A2
:100430007000446F6F723A00436865636B00416CF3
:1004400061726D00486F6D65004A6F6700486F6CA0
:10045000643A0052756E0049646C65000000A04269
:100460000000A04200007A430000FA430000FA4373
:100470000000FA4300A00C4700A00C4700A00C4766
:1004800000005AC3000087C3000048C30A000019D7
:10049000010AD7233C6F12033B00007A440000009E
:1004A0000038000000C8410000FA43FA0000008054
:1004B0003F0D0A005B5052423A006572726F723A09
:1004C000006F6B0D0A0011241FBECFEFD1E2DEBF1B
:1004D000CDBF00E00CBF2FE0A0E0B2E001C01D9254
:1004E000AF30B207E1F70E942E050C94763C0C94D5
:1004F00000008A988B980895E0E9F0E080818F7D74
:100500008083889808956C9A83E0809390008AE1B4
:100510008093910080E094E09093990080939800FC
:10052000809A819A209172043091730440917404EE
:100530005091750460916E0470916F048091700405
:10054000909171040E94A4379B01AC0160E070ECB3
:100550008FE794E40E94A438609300027093010234
:1005600080930202909303020C947C020E94571E17
:100570000E943F1D80912104811108C00E94F41E39
:10058000892BB1F780912004883091F308951F9250
:100590000F920FB60F9211240BB60F928F939F9369
:1005A000EF93FF9380910503E82FF0E0EB5FFD4FA1
:1005B00090819093C6008F5F809305039091040211
:1005C000891305C08091C1008F7D8093C100FF9188
:1005D000EF919F918F910F900BBE0F900FBE0F90D8
:1005E0001F901895E091040291E09E0F2091050361
:1005F000921305C020910A0E24FFF8CF0BC0F0E043
:10060000EB5FFD4F8083909304028091C100806274
:100610008093C10008959091210491110CC086FF30
:1006200002C08A9A01C08A9887FF02C08B9A01C0D3
:100630008B9810922B0408958A9B02C080E401C01D
:1006400080E08B99806808954F925F926F927F92BD
:100650008F929F92AF92BF92CF92DF92EF92FF92D2
:100660006B017C018090720490907304A0907404DC
:10067000B090750440906E0450906F0460907004C8
:1006800070907104A3019201C501B4010E94BC3AAB
:1006900087FF19C06091290470E080E090E00E941B
:1006A0004E392AE037ED43E25CE30E94FC3AA701B1
:1006B00096010E94FC3A6B017C01A30192010E9409
:1006C000BC3A87FD0BC040922D0450922E046092DC
:1006D0002F047092300480E094E04AC0A501940198
:1006E000C701B6010E949A381816FCF020E030E0ED
:1006F000A901C701B6010E949A3881110BC010925E
:100700002D0410922E0410922F041092300480E0D9
:1007100090E02EC080922D0490922E04A0922F047F
:10072000B092300481E090E023C0C0922D04D092BA
:100730002E04E0922F04F0923004A5019401C70129
:10074000B6010E94A437209100023091010240912D
:100750000202509103020E94FC3A0E94893920E073
:1007600030E040E85FE30E94A5370E941D39CB01CD
:10077000FF90EF90DF90CF90BF90AF909F908F90C1
:100780007F906F905F904F90089590939B0080931F
:100790009A00892B21F4809190008F7D03C0809175
:1007A00090008062809390000895909121049111AF
:1007B00024C081110BC010922D0410922E041092AF
:1007C0002F04109230040E947C0215C0803111F475
:1007D000899801C0899A9091760491FF05C0803272
:1007E00019F440E050E0BA01CB01BA010E942403A1
:1007F0000E94C503889A10922B040895CF92DF922D
:10080000EF92FF92CF9390912004923079F06A0199
:100810007B01C82F0E94B602B701A6018C2FCF9191
:10082000FF90EF90DF90CF900C94D503CF91FF9085
:10083000EF90DF90CF90089567E074E08EE994E048
:100840000C94B22C80910A0E84FD1DC080E10E94A0
:100850006E2C0E947C020E94790290912004892FC4
:100860008C7221F480912404867069F0943031F404
:1008700080910B0E811105C086E001C083E00E94CB
:100880005E2C0C945C3408951F920F920FB60F9259
:1008900011240BB60F922F933F934F935F936F9357
:1008A0007F938F939F93AF93BF93EF93FF93E091C9
:1008B000C600E13271F028F4E83179F40E94220494
:1008C00057C0EF3321F0EE3741F482E003C081E0FE
:1008D00001C088E00E946E2C4BC0E7FF3BC08E2F0A
:1008E00090E0FC01E458F109EE31F10508F040C058
:1008F0008827EA59FF4F8F4F0C94473C80E2EACF9C
:100900008091200485FF34C080E4E4CF81E00DC0F5
:1009100082E00BC084E009C088E007C080E105C028
:1009200080E203C080E401C080E80E94552C20C012
:1009300081E00DC082E00BC084E009C088E007C000
:1009400080E105C080E203C080E401C080E80E942D
:100950004C2C0EC0A091000581E08A0F90910105FA
:10096000891731F0B0E0AA5FBC4FEC93809300058B
:10097000FF91EF91BF91AF919F918F917F916F9177
:100980005F914F913F912F910F900BBE0F900FBE33
:100990000F901F901895FF920F931F93CF93DF93A3
:1009A0008C01EB018091760485FF26C0F090200435
:1009B00080E2F81629F1C8010E94772C8823E1F023
:1009C00081E08093230488E0F81641F00E9422041D
:1009D00082E00E945E2C0E943F1D0EC088E00E94B3
:1009E0006E2C0E943F1D80912104811105C08091D1
:1009F00020048111F6CFEACF80912004823041F1AA
:100A00000E943F1D80912104811122C090914F06C8
:100A100080914E06981303C00E94571EF1CFBE016D
:100A2000C8010E940A29811113C08091760481FFB8
:100A30000FC08C8584FF0CC04C815D816E817F81ED
:100A400080E1DF91CF911F910F91FF900C94FE03F5
:100A5000DF91CF911F910F91FF900895CF93DF9376
:100A6000CDB7DEB761970FB6F894DEBF0FBECDBF2E
:100A70008091C00082608093C0001092C50080E128
:100A80008093C4008091C10088698093C10080E098
:100A900090E00E94D01F8A3009F085C545E550E0FE
:100AA00061E070E081E394E00E94D81F892B09F493
:100AB0007AC581B18C6181B93C9A87B1806E87B962
:100AC000809181008F7E8093810080918100886079
:100AD00080938100809180008C7F80938000809142
:100AE00080008F708093800080916E00887F80935B
:100AF0006E0014BC15BC80916E00816080936E0006
:100B000084B18F7084B985B1806F85B980916B0095
:100B1000806F80936B008091680081608093680093
:100B20008CE0E7E0F4E0DF011D928A95E9F7789424
:100B3000109220048091760484FF03C081E08093AA
:100B4000200413E1212E14E0312E992493948091F6
:100B5000200491E1E0E2F4E011929A95E9F78093A4
:100B6000200484E68093270480932804809329043A
:100B70008CE0D1011D928A95E9F710921F04109222
:100B80000A0E10920B0E10920C0E10920D0E809108
:100B900000058093010580E4E6E8F4E011928A956F
:100BA000E9F76AEA74E080E00E941C20811103C02A
:100BB00087E00E94C62E0E948302829A839A0E9436
:100BC00079020E9419333898409A80E00E94472D9C
:100BD0001092B1001092B0008091B100887F8160C6
:100BE0008093B1008091B10087608093B1008091C3
:100BF00070008E7F809370000E94041F0E94D52B8E
:100C00000E941A340E941C0480EA92E00E94B32ED3
:100C10008091760483FF10C00E940031882361F028
:100C2000909220048EEE93E00E94B32E8DE893E024
:100C30000E94B32E0E944E3080912004817899F05A
:100C40008EEE93E00E94B32E88EC93E00E94B32EC8
:100C50000E944E309092200400E010E0A2E0EA2EC4
:100C6000B4E08B2E31C0109220040E94F32C80FF40
:100C700007C080910A0E806280930A0E0E943F1D79
:100C80000E94DA2EE9CFE92FF0E0EA5FFC4F808185
:100C90009F5F909301058F3FE9F08A3021F50E9414
:100CA0003F1D80912104811152CFE02FF0E0E15FE0
:100CB000F14F1082F12FF170FF2E10FF18C08BE062
:100CC0000E94C62E00E010E0909101058091000581
:100CD0009813D9CF0E94571E0E943F1D8091210476
:100CE000882391F334CF8D3009F037C4D8CF809169
:100CF0000F0E882309F42EC4843209F023C4998A84
:100D00008091100E833409F134F4882361F0843229
:100D100009F019C11AC08A3459F08835B1F0873406
:100D200009F011C112C08DE093E00E94B32E08C4F7
:100D3000809120048F7D09F0F0C38091110E8D33D6
:100D400009F0F6C30E94DC0AEEC39091110E9111D6
:100D5000EFC3833409F4BBC01CF4843239F0F0C310
:100D6000873469F0883509F4D2C0EAC38091200441
:100D70008871F82E09F0D1C30E943C2FE1C387E0AF
:100D800093E00E94B32E809186048C3838F083E083
:100D900093E00E94B32E809186048A580E948D2E83
:100DA00084EF92E00E94B32E80918C048A5C0E94B2
:100DB0008D2E84EF92E00E94B32E80918A048F5E84
:100DC0000E948D2E84EF92E00E94B32E80918804C1
:100DD00025E1281B822F0E948D2E84EF92E00E9435
:100DE000B32E80918904865A0E948D2E84EF92E062
:100DF0000E94B32E809187043EE5381B832F0E940A
:100E00008D2E80918D04882399F087EF92E00E94C7
:100E1000B32E80918D04833029F08E3139F08230E9
:100E200039F404C080E30E94F20202C00E948D2EB9
:100E300087EF92E00E94B32E80918F04803131F0D1
:100E4000803231F0811107C085E303C083E301C024
:100E500084E30E94F20287EF92E00E94B32E809119
:100E60008E04882359F087FF03C087E30E94F202B3
:100E700080918E0486FF05C088E301C089E30E944B
:100E8000F20280E093E00E94B32E809199040E94C8
:100E90008D2E8DEF92E00E94B32E6091950470919B
:100EA000960480919704909198040E94F62D8AEF01
:100EB00092E00E94B32E609191047091920480910F
:100EC00093049091940440E00E94592D0EC08091AB
:100ED0002004823069F40E9422048EEE93E00E9486
:100EE000B32E85EA93E00E94B32E0E944E3028C3B1
:100EF000811113C3E09220048EEE93E00E94B32E82
:100F00008EEA93E00E94B32E0E944E3045C080913D
:100F10002004813009F014C30E94F32C982F9170A3
:100F2000F92E80FF03C0FDE0FF2E0AC38EEE93E092
:100F30000E94B32E86EB93E00E94B32E0E944E30A7
:100F400010922004FDC290912004923008F0E5C276
:100F5000893409F4A3C034F4833271F0883409F47D
:100F60005AC04EC1823509F4F5C0833509F484C0F6
:100F70008E3409F045C11EC18091110E8111D8C275
:100F800010E0BE016F5F7F4F812F0E941C208111F6
:100F900005C087E00E94C62EF12CD2C281EF92E0FC
:100FA0000E94B32E163029F0173041F48BEE92E0F8
:100FB00002C08EEE92E00E94B32E04C086E3810F41
:100FC0000E948D2E8AE30E94F202CE0101960E94B9
:100FD000142E0E944E301F5F183099F685EE92E075
:100FE0000E94B32E86EB94E00E94142E0E944E3095
:100FF0008FED92E00E94B32E6091C2047091C30401
:101000008091C4049091C5040E94052E0E944E3028
:101010000E94533095C28091760484FF7BC20E9467
:10102000F32C80FD80CF809220048091110E8111DD
:101030007FC20E94103381E00E94153182E00E943D
:1010400015310E943F1D80912104811106C00E942C
:101050001C040E941A340E941933809121048111CA
:101060006FC2109220040E945C348091110E811195
:1010700067C20E94DA2E90CF8091110E8C3409F055
:1010800057C28091120E803509F052C28091130E22
:1010900081114EC280E80E946E2C52C2E98A809172
:1010A000110E811139C040E051E06EEA73E08FE02B
:1010B0009EE00E94D81F892B51F410920F0E40E041
:1010C00051E06FE07EE08EEA93E00E94151F86EC0F
:1010D00092E00E94B32E0E94082C0E944E3080ECB9
:1010E00092E00E94B32E86E50E94F2028EE40E94F6
:1010F000F2028DE40E94F2028BE20E94F2028CE284
:101100000E94F20283E20E948D2E8CE20E94F20283
:101110008FEF0E948D2EE9CEA3E0A98B8D3309F0CD
:1011200007C283E0282F30E0F901E15FF14F9081A1
:10113000D901A45FB14F9C938F5F90819111F2CF41
:10114000898B40E051E06FE07EE08EEA93E00E9400
:10115000151FF6C18091110E833509F0E9C1809108
:10116000120E843509F0E4C18091130E8D3309F01D
:10117000DFC18091150E8111DBC18091140E843284
:1011800039F08A3239F0833209F0D2C182E003C0EB
:1011900081E001C08FEF0E94731F8EEE93E00E94EA
:1011A000B32E82E793E00E94B32E0E944E300E943D
:1011B0002204C6C1E98A8091110E81111DC010E080
:1011C000812F0E94152C811104C087E00E94C62E39
:1011D0000EC08DEB92E00E94B32E812F0E948D2EC7
:1011E0008DE30E94F2020E94082C0E94C22E1F5F13
:1011F000123009F4A5C1E4CF91118FC111E001C0F3
:1012000010E0BE01635F7F4FCE0141960E94F03631
:10121000811103C0E2E0FE2E93C1E98981E08E0FC7
:10122000898BF0E0E15FF14F90819D3309F080C13F
:101230001123B9F1482F50E0282F30E0F901E15F88
:10124000F14F9081241B350BD901A15FB14F9C93C5
:101250008F5F90819111F0CF898B813508F060C14B
:101260000E94DC0A81115FC16D857E858F8598891A
:101270000E94DF3B2B013C010E94B602C301B20178
:101280000E941D39E1E0F1E06E9FC0016F9F900D5B
:10129000112440E051E06FE07EE09D5F0E94151F49
:1012A0007BCEBE016F5F7F4FCE0141960E94F0362C
:1012B000882309F4AFCFE989F0E0E15FF14F808145
:1012C000811136C1AD84BE84CF84D88820E030E05F
:1012D0004FE753E4C601B5010E94BC3A18160CF45E
:1012E00027C149805A806B807C80C601B5010E946D
:1012F0001D39062F20E030E0A901C301B2010E9490
:101300009A3887FD12C1043608F441C0045680E0C3
:101310000330A0F510E0000F111F000F111F8230E5
:1013200079F0F801833019F1813019F0EF5CFB4F4F
:1013300002C0E35CFB4F4082518262827382E7C04D
:10134000075B1B4F20E030E040E752E4C301B201ED
:101350000E94FC3A20E030E040E752E40E94FC3A70
:10136000D8016D937D938D939C931397D0C0EB5AC6
:10137000FB4F77FA709477F87094DDCF8F5F0A3067
:1013800008F4D6C0843009F4D3C00A50C1CFC301D9
:10139000B2010E94DF3B0E941D3910E001321105AD
:1013A00008F0C6C0F8018827EC57FF4F8F4F0C9408
:1013B000473C633008F4BFC060936104A8C06093E9
:1013C0006404A5C06093620402C0609363040E9439
:1013D0002B349DC080917604662311F0846095C003
:1013E0008B7F93C080917604662311F080648DC05A
:1013F0008F7B8BC080917604662311F0806801C0DA
:101400008F778093760480E00E94472D80C06093A0
:1014100065047DC04092660450926704609268043F
:101420007092690474C040926A0450926B04609296
:101430006C0470926D046BC080917604662311F089
:10144000816001C08E7F809376040E94EE2C5FC085
:1014500080917604662321F084FF70C0806255C0BD
:101460008F7D53C080917604662311F0886001C09F
:10147000877F809376040E94193349C08091760457
:10148000662311F0806141C08F7C3FC06093770478
:101490003EC0409278045092790460927A0470922F
:1014A0007B0435C040927C0450927D0460927E049F
:1014B00070927F042CC070E070938104609380046C
:1014C00026C04092820450928304609284047092F9
:1014D00085041DC040926E0450926F0460927004A7
:1014E0007092710408C0409272045092730460922A
:1014F0007404709275040E94830209C0809176047E
:10150000662311F0826001C08D7F809376040E9473
:10151000521F16C065E0F62E13C058E0F52E10C01D
:101520004EE0F42E0DC0F82E0BC034E0F32E08C0B0
:1015300023E0F22E05C096E0F92E02C08AE0F82ED4
:101540008F2D08C080912004817211F089E0B8CB02
:101550000E94DC0A0E94D22EB5CB112329F08932D9
:1015600009F0B2CB1D7FB0CB813208F4ADCB8F3206
:1015700009F4AACB883289F08B3389F00F3F89F0C8
:10158000202F30E00F5F9FE9980FF901E15FF14FE5
:101590009A3108F48052808397CB12E095CB14E007
:1015A00093CB11E091CB87E00E94C62E8FEF0E9473
:1015B000731F0E943C2F7DCA2F923F924F925F92E1
:1015C0006F927F928F929F92AF92BF92CF92DF9253
:1015D000EF92FF920F931F93CF93DF93CDB7DEB7B8
:1015E000CE54D1090FB6F894DEBF0FBECDBF8AE34B
:1015F000E6ECF4E0DF011D928A95E9F78BE0E6E87E
:10160000F4E0A7ECB4E001900D928A95E1F78091A7
:101610000F0E843211F00C949D1881E08093C70462
:101620001092C80483E08E8FB1E0BFA3212C312C2F
:1016300018AA1FA610E01F8E1BA2EE24E394F12C23
:10164000EAE0AE2EB12CF1E68F2EF3E09F2E8E8DC8
:10165000E82FF0E0E15FF14FD080DD2009F43FC2D8
:101660009FEB9D0D9A3110F00C946C188F5F8E8F4C
:10167000BE01665E7F4FCE014E960E94F0368823F3
:1016800011F40C946E184A8C5B8C6C8C7D8CC301AD
:10169000B2010E94DF3B0E941D39062F70E080E0FE
:1016A00090E00E944E399B01AC01C301B2010E943F
:1016B000A43720E030E048EC52E40E94FC3A0E945B
:1016C000693B0E941D39CB01E7E4DE1629F0FDE4F9
:1016D000DF1609F4EAC03BC1083209F4C6C020F5A0
:1016E000043168F4013108F08AC0043009F452C0B2
:1016F00008F464C00A3009F445C00C947C180C311D
:1017000009F440C050F4063110F00C947C1825E127
:10171000201B2093C90426E0ADC00E3199F106329A
:1017200009F44CC00C947C180D3309F498C0A8F44B
:10173000053381F140F40B3209F47AC0013309F426
:1017400077C00C947C180C3310F00C947C186AEC65
:10175000600F6093CD0429E08DC00C3538F40A3554
:1017600008F053C0003581F10C947C180C3551F011
:101770000F3510F00C947C182EE5201B2093C80424
:1017800025E078C0009731F42BA121110C9470183A
:1017900031E03BA30093C604202F2D7F2C3119F09C
:1017A0000C3509F064C0009721F00A9711F00C94F1
:1017B0007C18600F6093C60420E061C04BA141110A
:1017C0000C947018A2E0ABA30093C704063209F092
:1017D00050C08431910559F08E31910541F0883225
:1017E000910529F08233910511F00C947C18B50114
:1017F0000E94113C66576093C70421E040C06FEE21
:10180000600F6093CB0422E035C0892B31F466EA87
:10181000600F6093CA0423E032C06A30710511F092
:101820000C947C180A3511F40C947C1824E027C021
:10183000BBA1B1110C947018013331F41092CC0497
:1018400028E0E3E0EBA31BC00A9711F00C947C188E
:10185000F1E0F093CC0428E033E03BA310C0892BE7
:1018600011F00C947C182AE00AC027E003C020E0A5
:1018700001C021E0892B19F087E10C94A418C7015D
:1018800002C0880F991F2A95E2F72FA538A92823AF
:101890003923232B19F085E10C94A418AFA5B8A91E
:1018A000A82BB92BB8ABAFA7D2CE892B29F706301E
:1018B00018F4033058F016C0073010F40C947C185C
:1018C0000A30F0F00E3159F00C947C18002319F016
:1018D000013041F104C0B3E0B093CE0423C00093C3
:1018E000CE0420C0043021F0053031F080E101C089
:1018F00080E28093D00402C01092D0048CE013C028
:10190000083031F0093051F08091CF04806803C075
:101910008091CF0480648093CF0402C01092CF04E2
:101920008DE001C08BE0F70102C0EE0FFF1F8A952A
:10193000E2F72FA538A92E233F23232B09F0ABCFA5
:101940002FA538A92E2B3F2B38AB2FA780CE8D2D5E
:10195000DD0C990BAA0BBB0BFC01E654F109E53138
:10196000F10510F00C947C188827EB55FF4F8F4F32
:101970000C94473C4092D2045092D3046092D40419
:101980007092D50480E087C04092D6045092D7046C
:101990006092D8047092D904116081E07CC04092BA
:1019A000DA045092DB046092DC047092DD04126071
:1019B00082E071C04092DE045092DF046092E00445
:1019C0007092E104146083E066C00093E20484E056
:1019D00062C0C301B2010E9416396093E3047093A0
:1019E000E4048093E5049093E60485E054C04092BB
:1019F000E7045092E8046092E9047092EA0486E0F9
:101A00004AC04092EB045092EC046092ED04709254
:101A1000EE0487E040C04092EF045092F0046092E0
:101A2000F1047092F20488E036C020E030E04FE725
:101A300053E4C301B2010E94BC3A181614F40C948A
:101A400072180093F30489E026C04092F404509287
:101A5000F5046092F6047092F7043F8D31603F8F79
:101A60008AE019C04092F8045092F9046092FA0496
:101A70007092FB044F8D42604F8F8BE00CC0409200
:101A8000FC045092FD046092FE047092FF048F8D5E
:101A900084608F8F8CE06701082E02C0CC0CDD1CA7
:101AA0000A94E2F7960122213321232B11F00C94A2
:101AB0007418D40102C0B595A7958A95E2F7A0FFE6
:101AC0000BC020E030E0A901C301B2010E949A38A6
:101AD00087FF02C00C9476182C283D28B8CDBF8D06
:101AE000BB2329F0EBA1E11102C0F2E0FBA325FE2C
:101AF0000FC08091E3049091E404A091E504B091BB
:101B0000E60481389649A849B10514F00C94781878
:101B10003FA1332329F020FC02C00C94821818C086
:101B20008091C804813071F44BA14230E1F580917D
:101B3000C7048035C1F18823B1F120FC02C00C94A8
:101B4000821831C08091870481112DC020FE1BC0F6
:101B50008091C904813039F523E333E34BEC51E440
:101B60006091D2047091D3048091D4049091D504F3
:101B70000E94FC3A6093D2047093D3048093D404FF
:101B80009093D50410C08091950490919604A091F3
:101B90009704B09198048093D2049093D304A093B7
:101BA000D404B093D50430FC10C08091910490917E
:101BB0009204A0919304B09194048093EF049093C5
:101BC000F004A093F104B093F2048091C604843031
:101BD00039F426FC03C08CE10C94A418E89426F890
:101BE0008091CB048823A9F0813049F424968FAFEB
:101BF000249722961FAE229792E09FAF13C024969F
:101C00001FAE2497A2E02296AFAF2297B1E0BFAFFC
:101C100009C0E2E02496EFAF2497F1E02296FFAFEF
:101C200022971FAE8091C904813021F02BA123306F
:101C3000C9F52FC066ECC62E64E0D62EE12CF12C3F
:101C40003F8DA32EB12CC5010E2C02C09595879512
:101C50000A94E2F780FF12C023E333E34BEC51E434
:101C6000D6019E966D917D918D919C91D1970E9408
:101C7000FC3AF60166A777A780AB91ABFFEFEF1AAE
:101C8000FF0A24E0C20ED11C33E0E316F104D9F6BA
:101C9000CDCF8091CC04813029F44F8D443011F0A8
:101CA0000C947A188CE0EAEAF4E0DE011E960190CA
:101CB0000D928A95E1F78FA598A991FD08C0009132
:101CC000C6040A30C9F00C3509F4B3C01FC18091B5
:101CD000CD04873018F08DE10C94A41890918C04F9
:101CE000891769F3BE01625F7F4F0E941C20882321
:101CF00011F40C949018E3CF9F8D911103C08AE1E9
:101D00000C94A418C10180759927892B09F463CF1D
:101D10006091E7047091E8048091E9049091EA04ED
:101D20000E94DF3B0E941D396730A8F68091E204D3
:101D3000843141F0823011F00C947C1827FE02C0EF
:101D40000C947C18AFEA2A22662319F061506DA723
:101D500003C0B091CD04BDA766ED74E08DA50E94CF
:101D60001C20882311F40C9490180091E2044090F8
:101D7000C2045090C3046090C4047090C50446EC43
:101D8000E42E44E0F42E56E8A52E54E0B52EC12CE6
:101D9000D12CEF8D8E2E912CC4010C2C02C0959568
:101DA00087950A94E2F780FF35C0043151F5D501DB
:101DB000D0962D913D914D915C91D39758966D9110
:101DC0007D918D919C915B970E94A437F70126A588
:101DD00037A540A951A90E94A437D70150966D9309
:101DE0007D938D939C935397B2E0CB1213C0A301C4
:101DF00092010E94A437F701608B718B828B938BC9
:101E000009C0F70186A597A5A0A9B1A9808B918BE0
:101E1000A28BB38BFFEFCF1ADF0A24E0E20EF11C96
:101E200034E0A30EB11C43E0C416D10409F0B4CFD2
:101E300041C18F8D882309F462CF4090C204509035
:101E4000C3046090C4047090C50426E8A22E24E068
:101E5000B22E4E019EE0890E911C36ECE32E34E04A
:101E6000F32EC12CD12CA82FB0E0BCA7ABA78BA51B
:101E70009CA50C2C02C0959587950A94E2F780FFEB
:101E800029C0F4012081318142815381D5015896C6
:101E90006D917D918D919C915B970E94A437F70184
:101EA00026A537A540A951A90E94A437D7019E961F
:101EB0006D937D938D939C93D197B2E0CB1214C018
:101EC000A30192010E94A437F70166A777A780AB10
:101ED00091AB0AC0F50180A991A9A2A9B3A9F70104
:101EE00086A797A7A0ABB1ABFFEFCF1ADF0A24E01C
:101EF000A20EB11C34E0830E911C44E0E40EF11CF0
:101F000083E0C816D10409F0B2CFD3C09BA19330AF
:101F100069F40E3109F495C0053309F4C4C00C31DD
:101F200009F0C7C066ED74E086E08EC0AF8DAA23CD
:101F300081F3B091CA04BBA74090C2045090C3047F
:101F40006090C4047090C50486E8A82E84E0B82E82
:101F500096ECE92E94E0F92E4E01EEE08E0E911CE7
:101F6000C12CD12C2A2F30E03EA72DA78DA59EA5F0
:101F70000C2C02C0959587950A94E2F780FD0BC062
:101F8000F501808D918DA28DB38DF70186A797A75E
:101F9000A0ABB1AB44C0053309F441C0FBA5F111BE
:101FA0002BC0D501D0962D913D914D915C91D39749
:101FB000F40160817181828193810E94A537D701EC
:101FC0009E962D913D914D915C91D1970E94A537A0
:101FD000F70166A777A780AB91ABF2E0CF121FC0E5
:101FE000A30192010E94A537D7019E966D937D9320
:101FF0008D939C93D19713C0F501208D318D428D27
:10200000538DD7019E966D917D918D919C91D19725
:102010000E94A537F70166A777A780AB91ABFFEFCA
:10202000CF1ADF0A24E0A20EB11C34E0E30EF11C4B
:1020300044E0840E911C83E0C816D10409F096CFC9
:1020400068CF66ED74E087E00E941C20882311F4BD
:102050000C9490189F8D911103C01DA61BA22AC03D
:10206000A6E8B4E0E6ECF4E080E090E04F8D242FA9
:1020700030E0A901082E02C0559547950A94E2F771
:1020800040FD0AC058964D915D916D917C915B9792
:10209000408B518B628B738B0196149634968330F0
:1020A000910539F706C08091C704823010F00C9476
:1020B0007E181DA68091C7048BA7803529F49F8DBB
:1020C00091110C9480187FC2ABA1A23009F07BC2A1
:1020D000BBA5B11104C0EF8DE11175C22BC020E08A
:1020E00030E0A9016091D2047091D3048091D404AE
:1020F0009091D5040E949A38882311F40C94821888
:10210000FBA5FC3809F449C240F4F230A9F0F330E1
:10211000B1F0F13009F057C20AC02BA52E3809F4EE
:102120003CC208F437C22F3809F434C24CC23F8D88
:10213000311149C21BA247C24FA144604FA38F8DEA
:10214000882309F4DCCDBFADAB2FB0E0BCABABABAB
:102150002296FFAD2297EF2FF0E0F8AFEFAB81E0D2
:1021600090E07C010FAC02C0EE0CFF1C0A94E2F779
:1021700022960FAC229702C0880F991F0A94E2F7AB
:10218000E82AF92A2F8D822F90E08E219F21892B1A
:1021900009F4BAC7FD01EE0FFF1FEE0FFF1FEA5350
:1021A000FB4FAA0FBB1FAA0FBB1FA256BB4F2D91FF
:1021B0003D914D915C9166A577A580A991A90E945A
:1021C000A4372B013C01EFA9F8ADEE0FFF1FEE0F76
:1021D000FF1FEA53FB4FAFA9B8ADAA0FBB1FAA0F51
:1021E000BB1FA256BB4F2D913D914D915C9166A5B1
:1021F00077A580A991A90E94A4374B015C016101D8
:1022000030E8C322DD2427FEF5C0E89427F84CE02F
:1022100050E064EF74E08EE994E00E94693C892B01
:1022200011F481E291C78091C9048130B1F423E3B4
:1022300033E34BEC51E46091EB047091EC0480913A
:10224000ED049091EE040E94FC3A6093EB047093CD
:10225000EC048093ED049093EE048091EB04909154
:10226000EC04A091ED04B091EE048BAF9CAFADAF48
:10227000BEAFA3019201C301B2010E94FC3A2B96AA
:102280006CAF7DAF8EAF9FAF2B97A5019401C501B9
:10229000B4010E94FC3A2F966CAF7DAF8EAF9FAF1A
:1022A0002F9720E030E040E850E46BAD7CAD8DAD81
:1022B0009EAD0E94FC3A2BAD3CAD4DAD5EAD0E9493
:1022C000FC3A2B962CAD3DAD4EAD5FAD2B970E94E9
:1022D000A4372F962CAD3DAD4EAD5FAD2F970E942C
:1022E000A4376B017C0120E030E0A9010E949A38FC
:1022F00087FD0CC7C701B6010E949B3B6B017C01A7
:102300002F962CAD3DAD4EAD5FAD2F972B966CAD9E
:102310007DAD8EAD9FAD2B970E94A5370E949B3B54
:102320009B01AC01C701B60190580E94A4386B0113
:102330007C019BA5933021F4F7FAF094F7F8F09420
:1023400020E030E0A9016BAD7CAD8DAD9EAD0E946B
:102350009A3887FF11C0F7FAF094F7F8F0948BAD34
:102360009CADADADBEADB0588093EB049093EC0442
:10237000A093ED04B093EE040BA91CA9000F111F4C
:10238000000F111F0A521B4FA7019601C501B4018E
:102390000E94FC3A9B01AC01C301B2010E94A43728
:1023A00020E030E040E05FE30E94FC3AD8016D930A
:1023B0007D938D939C9313970FA918AD000F111F58
:1023C000000F111F0A521B4FA7019601C301B20152
:1023D0000E94FC3AA50194010E94A53720E030E05C
:1023E00040E05FE30E94FC3AF801608371838283DE
:1023F0009383E9C0212F30E03CAF2BAFE222F322E0
:10240000EF2809F485C631EF23228091C904813079
:1024100009F47BC0EBA9FCA9EE0FFF1FEE0FFF1F15
:10242000EA52FB4FC080D180E280F380A701960181
:10243000C301B2010E94A4372B013C01EFA9F8AD02
:10244000EE0FFF1FEE0FFF1FEA52FB4F80819181BD
:10245000A281B3818BAB9CABADABBEAB9C01AD019C
:10246000C501B4010E94A4374B015C01A301920194
:10247000C301B2010E94FC3A2B013C01A501940169
:10248000C501B4010E94FC3A9B01AC01C301B20139
:102490000E94A5370E949B3B4B015C01A70196015E
:1024A000C701B6010E94FC3A6B017C012BA93CA933
:1024B0004DA95EA9CA01B9010E94FC3A9B01AC0179
:1024C000C701B6010E94A5370E949B3B6B017C01AE
:1024D0006093EB047093EC048093ED049093EE040E
:1024E0009B01AC01C501B4010E94A4374B015C0102
:1024F000E894B7F82AE037ED43EA5BE3C501B4019D
:102500000E94BC3A18164CF15EC006EC14E08BAD8C
:102510009CAD0C2C02C0959587950A94E2F780FF3C
:1025200012C023E333E34BEC51E4D80150966D9194
:102530007D918D919C9153970E94FC3AF801608B9C
:10254000718B828B938BFFEFCF1ADF0A0C5F1F4FCB
:1025500023E0C216D104D9F65DCF20E030E040E0A0
:102560005FE3C501B4010E94BC3A18160CF459CEC1
:102570002FE632E143E85AE3C701B6010E94FC3A74
:102580009B01AC01C501B4010E94BC3A18160CF4C1
:1025900048CE19C03FA130613FA38BA58E58823031
:1025A00018F44FA148604FA38F8D882309F4A7CB5F
:1025B0004CE050E064EF74E08EE994E00E94693CE6
:1025C000892B09F42ECE2FA121709FA190FF03C06B
:1025D000C1018E7D03C0C1018E7D9C7FABA1A11185
:1025E000937E892B09F096C58E010F5F1F4F8DE0FA
:1025F000F80111928A95E9F7222309F457C08FA5B3
:1026000098A9867B892B09F087C58091C6048533FC
:1026100011F0811181C58091910490919204A09153
:102620009304B09194048D839E83AF83B887909177
:102630008F0480918E04892B4091D2045091D30451
:102640006091D4047091D50449835A836B837C8351
:1026500084608D878091E3049091E404A091E50467
:10266000B091E60489879A87AB87BC87809176040E
:1026700085FF06C084EF94E00E94772C81114EC53F
:10268000B80184EF94E00E94CB0480912004811172
:1026900049C50E94F41E892B09F444C580E2809349
:1026A00020040E943D200E94D8363CC580917604CB
:1026B000F0908F0481FF26C08BA58150833018F0E5
:1026C000FFA1F064FFA32F8D222339F03BA132300C
:1026D00021F44FA140684FA315C080E1F81212C049
:1026E0008091860481509FA19074833030F49923A7
:1026F00049F09FA190629FA305C0911103C0AFA1B3
:10270000A062AFA38091E3049091E404A091E5045A
:10271000B091E60480939A0490939B04A0939C0448
:10272000B0939D0489879A87AB87BC878091C80442
:1027300080938704882311F088E08D878091D204EC
:102740009091D304A091D404B091D50480939504C2
:1027500090939604A0939704B093980489839A83E6
:10276000AB83BC838090EF049090F004A090F104C0
:10277000B090F204A50194016091910470919204CB
:1027800080919304909194040E949A38BFA1B074F0
:10279000EB2E811103C0EFA1E5FF20C0FF2071F0F7
:1027A000FFA1F7FD0BC0EE2021F040E050E0BA01A0
:1027B00002C0B501A4018F2D0E94FE038091EF0499
:1027C0009091F004A091F104B091F20480939104EF
:1027D00090939204A0939304B0939404E1100CC0DE
:1027E0008091910490919204A0919304B0919404EB
:1027F0008D839E83AF83B8878091F304809399047F
:102800008091D00490918F04981751F04D815E8192
:102810006F8178850E94FE038091D00480938F049D
:102820009D8580918F04892B8D87F090CF048091B6
:102830008E048F1569F080912004823029F00E9467
:10284000B6028F2D0E940B038091CF0480938E04DB
:102850009D8580918E04892B8D878091C60484305C
:1028600099F4C090E704D090E804E090E904F09077
:10287000EA0480912004823039F00E94B60240E0E0
:10288000C701B6010E94EB338091CB0480938A0488
:102890008091C904809388042BA1233071F5809125
:1028A000CC0480938B04811108C01092FC04109218
:1028B000FD041092FE041092FF04C090FC04D0901E
:1028C000FD04E090FE04F090FF04A70196016091E2
:1028D000C2047091C3048091C4049091C5040E9405
:1028E0009A38882351F0C092C204D092C304E09277
:1028F000C404F092C5040E94EE2C8091CD04909106
:102900008C04981769F080938C048CE0FE013E964D
:10291000AAEAB4E001900D928A95E1F70E94EE2CAC
:102920008091CA04809389048091C6048632F1F1B3
:1029300038F48C3109F18E31F9F08A3069F04FC0EA
:102940008C35D1F1863609F441C0883209F047C090
:102950006EE974E087E02DC066ED74E08DA50E94FD
:102960005F1F80918C043DA5381339C08CE0E6EDE3
:10297000F4E0AAEAB4E025C08D8581608D874BA183
:10298000442329F0B80184EF94E00E94CB04B801FD
:1029900086ED94E00E94CB048CE0E6EDF4E0AEE935
:1029A000B4E001900D928A95E1F719C06EE974E0E8
:1029B00086E00E945F1F13C08CE0E4EFF4E0A6EB1A
:1029C000B4E001900D928A95E1F707C08CE0E6EB48
:1029D000F4E0DF011D928A95E9F70E94EE2C8091C8
:1029E000C70480938604803509F428C3BBA1B230A4
:1029F00009F024C3813021F4BE016F5F7F4F06C010
:102A0000811109C08D8581608D87B80184EF94E0C4
:102A10000E94CB040AC38250823008F09FC280918A
:102A2000EB049091EC04A091ED04B091EE048BA323
:102A30009CA3ADA3BEA3AFAD94E0A99F70011124E8
:102A4000F701E256FB4FFCA7EBA797012A523B4F39
:102A50003EA72DA7D9014D905D906D907C9020816F
:102A6000318142815381C301B2010E94A5376FA712
:102A700078AB89AB9AAB2296EFAD2297B4E0EB9F8F
:102A800080011124980122563B4F21963FAF2EAF73
:102A90002197C8018A529B4F23969FAF8EAF2397F1
:102AA000DC018D909D90AD90BC90F9012081318129
:102AB00042815381C501B4010E94A5376BAB7CAB49
:102AC0008DAB9EAB77FA709477F87094D501C40102
:102AD000B0588F8F98A3A9A3BAA3F701EC50FB4F6E
:102AE0002FA538A949A95AA9608171818281938152
:102AF0000E94A4376B017C01F801EC50FB4F2BA91D
:102B00003CA94DA95EA960817181828193810E9457
:102B1000A4374B015C01A7019601C301B2010E94D9
:102B2000FC3A6FAB78AF89AF9AAFA50194016F8D76
:102B300078A189A19AA10E94FC3A9B01AC016FA9DE
:102B400078AD89AD9AAD0E94A5376FAB78AF89AFEC
:102B50009AAFA5019401C301B2010E94FC3A4B0156
:102B60005C01A70196016F8D78A189A19AA10E94AD
:102B7000FC3A9B01AC01C501B4010E94A4372FA906
:102B800038AD49AD5AAD0E9424386B017C019FA13C
:102B900092FF13C02DEB37E346E055EBC701B601BA
:102BA0000E94BC3A87FD1DC02BED3FE049EC50E48C
:102BB000C701B6010E94A43712C02DEB37E346E0EF
:102BC00055E3C701B6010E949A38181654F02BED50
:102BD0003FE049EC50E4C701B6010E94A5376B0104
:102BE0007C0180906A0490906B04A0906C04B0907B
:102BF0006D042BA13CA14DA15EA1CA01B9010E94A7
:102C0000A537A50194010E94A437A50194010E9453
:102C1000FC3A0E949B3B4B015C0120E030E040E02D
:102C20005FE3C701B6010E94FC3A2BA13CA14DA174
:102C30005EA10E94FC3A9F77A50194010E94A438EE
:102C40000E9489390E941D3978AF6FABDB01AB2B35
:102C500009F4D2CE1D854B01A12CB12C13FF12C05B
:102C6000C501B4010E944C399B01AC0169817A8194
:102C70008B819C810E94FC3A69837A838B839C833D
:102C8000177F1D87C501B4010E944C394B015C01BF
:102C90009B01AC01C701B6010E94A4386FA378A7BD
:102CA00089A79AA72496EFAD2497B4E0EB9FC001C3
:102CB00011248C0102561B4FFC01EC50FB4FD80134
:102CC0002D913D914D915C916081718182819381C3
:102CD0000E94A437A50194010E94A4382B966CAFE2
:102CE0007DAF8EAF9FAF2B972FA138A549A55AA5D1
:102CF000CA01B9010E94FC3A9B01AC0160E070E09E
:102D000080E090E40E94A4376B017C012BEA3AEA50
:102D10004AE25EE36FA178A589A59AA50E94FC3AD4
:102D20004B015C0120E030E040E850E4C701B6010F
:102D30000E94A5379B01AC01C501B4010E94FC3A79
:102D40006BAF7CAF8DAF9EAF20E030E040E05FE343
:102D5000C701B6010E94FC3A27966CAF7DAF8EAFDB
:102D60009FAF27971BA222242394312CEFA9F8AD03
:102D7000E215F30509F440CEBBA1BC3008F044C015
:102D80002F8D38A149A15AA127966CAD7DAD8EAD8E
:102D90009FAD27970E94FC3A6B017C01A301920131
:102DA0006BAD7CAD8DAD9EAD0E94FC3AA701960146
:102DB0000E94A5377B016C01A301920127966CAD9F
:102DC0007DAD8EAD9FAD27970E94FC3A4B015C0113
:102DD0002F8D38A149A15AA16BAD7CAD8DAD9EADB3
:102DE0000E94FC3A9B01AC01C501B4010E94A437CA
:102DF0002B013C01EBA1EF5FEBA3470156018F8E46
:102E000098A2A9A2BAA267C0B10180E090E00E9496
:102E10004C392FA138A549A55AA50E94FC3A6B014F
:102E20007C010E949F386F8F78A389A39AA3C70162
:102E3000B6010E948D3B4B015C01ADA5BEA5CD90B6
:102E4000DD90ED90FC90F7FAF094F7F8F09423966B
:102E5000AEADBFAD23978D919D910D90BC91A02DEE
:102E60008BA39CA3ADA3BEA3A70196016F8D78A1F0
:102E700089A19AA10E94FC3A2B013C012BA13CA103
:102E80004DA15EA1C501B4010E94FC3A9B01AC01B9
:102E9000C301B2010E94A5372B013C01A701960195
:102EA000C501B4010E94FC3A6B017C012BA13CA13D
:102EB0004DA15EA16F8D78A189A19AA10E94FC3AD3
:102EC0009B01AC01C701B6010E94A4376F8F78A3A4
:102ED00089A39AA31BA2A30192016FA578A989A92E
:102EE0009AA90E94A537EBA5FCA560837183828314
:102EF00093832F8D38A149A15AA16BA97CA98DA9D3
:102F00009EA90E94A5372196AEADBFAD21976D93C6
:102F10007D938D939C9313972B962CAD3DAD4EAD29
:102F20005FAD2B97F80160817181828193810E944E
:102F3000A537D8016D937D938D939C931397BE0114
:102F40006F5F7F4F8EE994E00E94CB048091210453
:102F500081116BC0BFEF2B1A3B0A08CF8D858460AF
:102F60008D8780912004823009F45FC00E94B602F0
:102F700080912104811162C0FFA1F071FF2E109297
:102F800025042FA123FB882780F90E94472D86B1B5
:102F9000817090910604891749F084E00E945E2CAC
:102FA0000E943F1D80E00E94472D48C0B80184EF79
:102FB00094E00E94CB0481E080931F0482E00E9491
:102FC0006E2C0E943F1D80912104811137C0809199
:102FD00020048111F6CF80911F04813081F4FF20FD
:102FE00051F08CE0E7E0F4E0A3E1B4E001900D9251
:102FF0008A95E1F707C085E00E945E2C03C081E05E
:103000008093250410921F0480E00E94472D0E94A7
:103010003F1D0E94D52B0E94041F0E941A340E945B
:1030200053308091250481118CC08CE0E4EFF4E0F2
:10303000AEE9B4E001900D928A95E1F78091CE045B
:1030400080938D04882309F47FC00E94B60280918A
:103050008D0490912004833041F49230D1F188E0C6
:103060000E946E2C0E943F1D34C081E08093860434
:1030700010928A04109289041092870410928C0492
:1030800010928F0410928E0484E68093270480931C
:10309000280480932904923091F06AEA74E080E079
:1030A0000E941C208823E1F10E94EE2C40E050E0B9
:1030B000BA0180E00E94D50380E00E940B038EEEEF
:1030C00093E00E94B32E85E893E00E94B32E0E9405
:1030D0004E3010928D042FC081E036C082E034C0A3
:1030E00088E132C086E230C089E12EC084E02CC085
:1030F0008BE12AC085E228C084E126C08EE124C08D
:103100008FE122C086E120C080E21EC082E21CC0A6
:1031100083E21AC084E218C080E116C08FE014C0B8
:1031200087E012C08CE0E4EFF4E0AEE9B4E0019097
:103130000D928A95E1F780E007C01E8E1FA20C94C5
:10314000160B0E941C047ACFC25BDF4F0FB6F894B7
:10315000DEBF0FBECDBFDF91CF911F910F91FF90CA
:10316000EF90DF90CF90BF90AF909F908F907F9027
:103170006F905F904F903F902F9008953F924F92A5
:103180005F926F927F928F929F92AF92BF92CF92F7
:10319000DF92EF92FF920F931F93CF93DF93CDB700
:1031A000DEB7A4970FB6F894DEBF0FBECDBF109167
:1031B0000B0E112391F181E08093200484EF93E0C2
:1031C0000E94B32E812F0E948D2E0E94C22E85EF69
:1031D00091E0019739F0EFE9FFE03197F1F700C096
:1031E0000000F7CF1150123030F08FB7F8941092E2
:1031F0000B0E8FBF12C08EEE93E00E94B32E8CEDAB
:1032000093E00E94B32E0E944E3080E10E94642C15
:1032100080910A0E84FFFCCFE8CF10910A0E112393
:1032200009F4F0C214FF04C081E0809321040FC4AC
:1032300010FFF4C18CE0E7E0F4E0DE015996019064
:103240000D928A95E1F7BE01675E7F4FCE010D9624
:103250000E94B22C8CE30E94F202809120048830FC
:10326000E1F058F4813099F1A8F0823099F184307E
:1032700009F043C084E494E03EC0803229F118F4A0
:10328000803171F03AC0803441F18038B1F58CE280
:1032900094E031C087E594E02EC083E594E02BC034
:1032A0008091220487FD10C08DE494E00E94B32E2B
:1032B0008091220480FF06C080E31AC082FF17C0FD
:1032C00085FFFACF81E314C089E494E014C08EE353
:1032D00094E011C088E394E00EC082E394E00E9481
:1032E000B32E8091220483FFE9CF83E301C082E300
:1032F0000E94F20202C00E94B32E80916504F82F52
:10330000F170BF2E80FF07C080912C04882319F034
:1033100085E294E053C04090C2045090C304609092
:10332000C4047090C5044AEA842E44E0942E9E01A1
:103330002F5F3F4F7901CE010D966C0100E0F40143
:1033400061917191819191914F01208531854285E3
:1033500053850E94A537F70160837183828393832D
:10336000023061F4A30192010E94A537F701608346
:10337000718382839383BB2019F0CACFB11011C02F
:10338000F7012081318142815381F6016081718191
:10339000828193810E94A437F601608371838283C6
:1033A00093830F5FF4E0EF0EF11C24E0C20ED11CFA
:1033B000033029F6B110ACCF8EE194E00E94B32E19
:1033C000CE010D960E94142E8091650481FF21C0CC
:1033D00089E194E00E94B32E9091E80D80914F0610
:1033E000981710F08D5D01C08150891B0E948D2EB1
:1033F0008CE20E94F20280910105909100059817DD
:1034000020F0981B892F809502C08150891B0E9453
:103410008D2E0E94F41E0097F9F0FC01C288D3881B
:10342000E488F588C114D104E104F104A9F084E131
:1034300094E00E94B32EF7FE0BC08DE20E94F202D0
:1034400066277727CB016C197D098E099F0902C079
:10345000C701B6010E942D2E8FE094E00E94B32E8A
:10346000809120048C7749F0609133067091340686
:10347000809135069091360603C060E070E0CB0184
:103480000E94F62D8CE20E94F20260912D04709150
:103490002E0480912F049091300440E00E94592D19
:1034A0000E940031F82E0E94F32C082F86B1982F2D
:1034B000917080910604E92EE8268F2D802B8E29AD
:1034C00081F18AE094E00E94B32EEE2019F080E5AD
:1034D0000E94F202FF2079F0F0FE03C088E50E940E
:1034E000F202F1FE03C089E50E94F202F2FE03C07F
:1034F0008AE50E94F2020023A1F000FF03C084E4E9
:103500000E94F20201FF03C082E50E94F20202FF64
:1035100003C088E40E94F20203FF03C083E50E9417
:10352000F20280912C04882321F0815080932C0496
:1035300018C0809120048C7711F08DE101C089E0E2
:1035400080932C0480912B04811103C081E080932F
:103550002B0484E094E00E94B32ECE0101960E94D9
:10356000142E80912B04882321F0815080932B040A
:103570004DC0809120048C7711F083E101C089E077
:1035800080932B048FEF93E00E94B32E8091270449
:103590000E948D2E8CE20E94F202809128040E94EB
:1035A0008D2E8CE20E94F202809129040E948D2EC1
:1035B00081B3082F017080FF0BC080919000082F0D
:1035C000007285FF05C0899B02C002E001C001E0D6
:1035D0000E941C03F82E011102C08823B9F08BEF62
:1035E00093E00E94B32E002339F0013011F483E5FB
:1035F00001C083E40E94F202F6FE03C086E40E944A
:10360000F202F7FE03C08DE40E94F2028EE30E94F4
:10361000F2020E94C22E81E00E94642C812F887EDB
:1036200009F467C080912004982F937009F050C06E
:103630008872A1F080912204807C81F40E949E27F0
:1036400082E08093240480912004803239F417FDB5
:10365000FCC1809122048068809322048091200420
:10366000811103C091E09093220416FF07C085FDED
:1036700005C09091220490649093220413FF05C02A
:10368000807E19F480E18093200415FF21C08EEE26
:1036900093E00E94B32E8AE993E00E94B32E0E9429
:1036A0004E308091220487FD0EC09091200490340A
:1036B00039F483FFC6C1837E826080932204C1C136
:1036C000903809F0BEC18091220480628093220468
:1036D00017FF0CC080912004813029F480912204CE
:1036E00085608093220480E88093200488EE0E9405
:1036F000642C11FF44C0812F8876F1F5809120045D
:10370000803471F48091220485FD0AC084FF03C0D7
:103710001092200405C082FF03C0886080932204B9
:1037200080912004882381F084FF26C09091220498
:1037300090FF22C0803141F480912A04882321F037
:10374000886080932A0418C0109224040E94F41EFA
:10375000892B71F08091220486FD0AC01092220408
:1037600088E0809320040E943D200E94D83604C047
:10377000109222041092200482E00E94642C12FF16
:1037800041C080912004807D909122048823D9F04B
:1037900080912304811117C097FD15C00E949E27B8
:1037A00080914F0680934D060E94C2278091240489
:1037B00081FF05C090912204916090932204897F3B
:1037C000809324041CC097FF0AC0109224040E9416
:1037D000041F0E94D52B0E941C040E941A34809161
:1037E000220485FF08C08F7781608093220480E4E3
:1037F0008093200404C0109222041092200484E0DC
:103800000E94642C90910C0E992309F4ABC08FB7E1
:10381000F89410920C0E8FBF4091270490FD02C0C7
:10382000842F01C084E691FD865F92FD8A5093FD4E
:103830008F5F94FD8150893C08F088EC8A3008F451
:103840008AE03091280495FD02C0232F01C024E6B0
:1038500096FD22E397FD29E1481303C0231709F4DD
:1038600081C0809327042093280410922B04109188
:103870004F063090E80D89E9D82E96E7E92E26E923
:10388000F22E0EE736E3432E131509F457C0812EAE
:10389000912C489CC001499C900D11249C01205BF7
:1038A000394F5901C9010E94811E562E672E782E6C
:1038B000C92E2D2D3E2D4F2D502F0E94BC3A18168B
:1038C0004CF42D2D3E2D4F2D502F6D2D7E2D8F2DF7
:1038D000902F08C0252D362D472D5C2D652D762D7A
:1038E000872D9C2D0E94FC3AF501628F738F848F87
:1038F000958F489CC001499C900D11249C01205B30
:10390000394F7901F90186A097A0A0A4B1A4A5011F
:103910009401628D738D848D958D0E94BC3A18162A
:103920002CF4F701828E938EA48EB58E1F5F143215
:1039300009F410E0D52C73010C2DA6CF8D2D9E2DF2
:10394000AF2DB02F8093060E9093070EA093080E14
:10395000B093090E0E949E2780914F0680934D06DA
:103960000E94C22700910D0E002309F463C08FB797
:10397000F89410920D0E8FBF9091290400FD02C0A3
:10398000892F01C084E601FD865F02FD8A5003FD98
:103990008F5F04FD8150893C08F088EC8A3008F480
:1039A0008AE09817D1F08093290480912004811136
:1039B0000DC04091910450919204609193047091D4
:1039C000940480918F040E94D50305C08091240443
:1039D00088608093240410922B048091200405FFBA
:1039E0000DC0803159F490912A04911102C092E0E7
:1039F00003C090FF03C0946090932A04902F907CA2
:103A0000C9F0882311F08873A9F010918E0407FF84
:103A100005C017FF02C01F7701C0106806FF05C070
:103A200016FF02C01F7B01C01064812F0E940B0390
:103A300010938E04809120048C7F49F00E943D20D9
:103A400006C080E4809320043ECE80E20ECEA49691
:103A50000FB6F894DEBF0FBECDBFDF91CF911F919F
:103A60000F91FF90EF90DF90CF90BF90AF909F901D
:103A70008F907F906F905F904F903F900895CF927E
:103A8000DF92EF92FF921F93CF93DF930E94BE18B5
:103A900080912204882309F402C10E94F41E7C0153
:103AA000009771F4C0918F0480918E04C82BC09050
:103AB0009104D0909204E0909304F09094040BC091
:103AC000FC01C189C0730E941C03C82BF701C2A866
:103AD000D3A8E4A8F5A88091760481FF03C080E212
:103AE0000E944C2CDC2FD07311E0C07C809122040A
:103AF000882309F4D4C0909121049111D0C080FF93
:103B0000CBC090912004292F207C09F47AC082FD3B
:103B100012C010922A0440E050E0BA0180E00E94F6
:103B2000D50380E00E940B03809122048D7F846086
:103B300080932204B1C09038E1F48EEE93E00E94AD
:103B4000B32E87E593E00E94B32E0E944E3040E0F2
:103B500050E0BA0180E00E94D50380E00E940B0390
:103B60000E945C3480912104811199C00E94BE188A
:103B7000F9CF903449F40E94F32C80FD05C0809168
:103B800022048F7D809322048091220483FF84C0CD
:103B900090918F049923C1F081FD16C08091760425
:103BA00081FF06C0809124048860809324040CC0A7
:103BB000B701A6018D2F0E94D50341E060E070E0BF
:103BC00080E890E40E94EB3380918E04882371F0AA
:103BD0008091220481FD0AC08C2F0E940B0341E0DA
:103BE00060E070E080E89FE30E94EB338091220464
:103BF00081FD52C080618093220482E00E946E2C7D
:103C00004BC080912A048823C9F181FF0DC08091A7
:103C10008F048823B1F040E050E0BA0180E00E94B8
:103C2000D50310932A0438C08C70B1F180918F04B1
:103C300081110AC080912A0483FF03C082E00E94A0
:103C40006E2C10922A0428C08EEE93E00E94B32EB0
:103C500080E693E00E94B32E0E944E30809176045D
:103C600081FF06C080912404886080932404E2CF01
:103C7000B701A6018D2F0E94D503DCCF80912404CB
:103C800083FF0AC0B701A6018D2F0E94D503809142
:103C90002404877F809324040E94BE1827CFDF91DD
:103CA000CF911F91FF90EF90DF90CF9008950E94E9
:103CB000F41E892B19F082E00C946E2C0895F89470
:103CC000F999FECF92BD81BD81E08FBB80B586277B
:103CD000482F082E000C550B262F30E024233523C7
:103CE000232B39F06F3F19F060BD84E006C084E1FA
:103CF00004C0882321F060BD84E28FBBF99A7894D8
:103D00000895BF92CF92DF92EF92FF920F931F938D
:103D1000CF93DF937C01FC0106A517A5D0A9C1A90B
:103D2000818980FF18C06091280470E080E090E0F5
:103D30000E944E392AE037ED43E25CE30E94FC3AF0
:103D40009B01AC01B8018D2F9C2F0E94FC3A8B0186
:103D5000D82FC92F2DC082FD17C06091270470E0B5
:103D600080E090E00E944E392AE037ED43E25CE3C8
:103D70000E94FC3A9B01AC01B8018D2F9C2F0E9440
:103D8000FC3A8B01D82FC92FF701B2A4C3A4D4A445
:103D9000F5A42B2D3C2D4D2D5F2DB8018D2F9C2F83
:103DA0000E94BC3A181624F40B2D1C2DDD2DCF2DAE
:103DB00020E030E040E85FE3B8018D2F9C2F0E94A7
:103DC000BC3A181624F000E010E0D0E8CFE3B801C8
:103DD0008D2F9C2FDF91CF911F910F91FF90EF902E
:103DE000DF90CF90BF90089580914F069091E80D9D
:103DF000981739F026E3829FC0011124805B994F08
:103E0000089580E090E008958CE1EEEEFDE0DF01A2
:103E10001D928A95E9F710924F061092E80D81E005
:103E200080934E0610924D0608959F92AF92BF92D6
:103E3000CF92DF92EF92FF920F931F93CF93DF9376
:103E40005C018A017B01E40EF51EEB01912C6C01F3
:103E5000C61AD70ACE018C0D9D1DCE15DF0589F03F
:103E6000911008C0292D990C330B232F221F2227D4
:103E7000221F01C021E06991922E960E0E945F1EC2
:103E8000E9CF692DC501800F911FDF91CF911F915F
:103E90000F91FF90EF90DF90CF90BF90AF909F90E9
:103EA0000C945F1E6AE080E090E00E945F1E45E592
:103EB00050E061E374E081E090E00C94151F0F93F3
:103EC0001F93CF93C82F8B010E94B6022DE0C29F93
:103ED000C00111244CE050E0B8019E5FCF911F91CA
:103EE0000F910C94151FEF92FF920F931F93CF9396
:103EF000DF93CDB7DEB72C970FB6F894DEBF0FBEB9
:103F0000CDBF182F80FF0BC085E5ECE5F4E0A1E301
:103F1000B4E005900D928A95E1F70E94521F11FFBF
:103F200010C0CE0101967C018CE0F70111928A95B8
:103F3000E9F700E0B701802F0E945F1F0F5F083094
:103F4000C9F712FF14C060E080E093E00E945F1E9A
:103F500060E081E093E00E945F1E60E081E094E019
:103F60000E945F1E60E082E094E00E945F1E13FFEB
:103F70000AC060E08EEA93E00E945F1E60E08FEA74
:103F800093E00E945F1E2C960FB6F894DEBF0FBE22
:103F9000CDBFDF91CF911F910F91FF90EF900895CA
:103FA000F999FECF92BD81BD81E08FBB80B50895A8
:103FB0009F92AF92BF92CF92DF92EF92FF920F93B8
:103FC0001F93CF93DF935B018A017C01E40EF51E02
:103FD000EC01912C6B01C81AD90AC6018C0F9D1FE8
:103FE000CE15DF0589F00E94D01F911008C0292D41
:103FF000990C330B232F221F2227221F01C021E0FF
:10400000982E920E8993E9CFC501800F911F0E94CF
:10401000D01F21E030E0981611F020E030E0C90117
:10402000DF91CF911F910F91FF90EF90DF90CF9094
:10403000BF90AF909F9008951F93CF93DF93182F59
:10404000EB018DE0189FB00111247E5F4CE050E041
:10405000CE010E94D81F892B59F48CE0FE011192E9
:104060008A95E9F7BE01812F0E945F1F80E001C0A1
:1040700081E0DF91CF911F9108952F923F924F924F
:104080005F926F927F928F929F92AF92BF92CF92E8
:10409000DF92EF92FF920F931F93CF93DF93CDB7F1
:1040A000DEB7ED970FB6F894DEBF0FBECDBF80919F
:1040B000240480FD2AC7909128058091E90D981766
:1040C00009F423C78091EC0D9091ED0D892B09F037
:1040D0000BC31091240412FF09C08091E80D26E360
:1040E000289FC0011124805B994F02C00E94F41EDA
:1040F0009093ED0D8093EC0D2090EC0D3090ED0D34
:104100002114310409F401C700911D06802F81702C
:1041100000FF03C010921D06EAC090911C069F5F2D
:10412000993009F0892F80931C06E82EF12C32E19A
:104130003E9DF0013F9DF00D1124E658FA4FF0939B
:10414000EB0DE093EA0DD10150969C915097908B26
:10415000E2E18E9FC001112420E030E04D915D919D
:104160006D917D91F901E80FF91FE658FA4F6894B7
:1041700012F8440F551F661F771F1694D1F740831E
:104180005183628373832C5F3F4F2C30310531F7AD
:1041900022E12E9DF0012F9DF00D11249F01265844
:1041A0003A4FF10184859585A685B78543E0880F50
:1041B000991FAA1FBB1F4A95D1F7F90184879587DC
:1041C000A687B787D1011C966D917D918D919C91A9
:1041D0001F970E944C3960932206709323068093A8
:1041E000240690932506F10122A133A144A155A1F3
:1041F0000E94A4389B01AC016093260670932706A9
:10420000809328069093290660E070E080EA9FE39F
:104210000E94A43860932A0670932B0680932C0684
:1042200090932D0610921E0610921F0610922006E3
:104230001092210611FD02C003FF1FC060913B06D2
:1042400070913C0680913D0690913E066093330646
:104250007093340680933506909336069B01AC012B
:104260000E94FC3AD10156966D937D938D939C9359
:104270005997077F00931D060FC0F1016689778962
:10428000808D918D0E949B3B609333067093340622
:104290008093350690933606F2E1FE9DC001FF9DA6
:1042A000900D11249C0126583A4F7901D90151965D
:1042B0001C928091760481FF1AC0F101818985FFEB
:1042C00016C026A537A540A951A960E070E080E896
:1042D0009FE30E94A438609347067093480680933A
:1042E000490690934A06E1E0D7015196EC9310926B
:1042F0002F06109230061092310610923206D1012C
:104300005E962D913D914D915C91919729833A83D1
:104310004B835C8360E070E080E09FE30E94A43800
:104320006D837E838F839887F10142A053A064A0A0
:1043300075A086889788A08CB18C11FF44C0F2E0EC
:10434000F0932E06A50194010E94FC3A9B01AC015A
:10435000C301B2010E94A4376B017C0120E030E070
:10436000A9010E949A3887FF1DC029813A814B819B
:104370005C81CA01B9010E94A537A30192010E9484
:10438000FC3A9B01AC01C501B4010E94A4370E9414
:104390009B3B60933B0670933C0680933D06909355
:1043A0003E069FC1C0922F06D0923006E0923106A1
:1043B000F092320610923B0610923C0610923D0697
:1043C00010923E068EC110922E0640923F065092E9
:1043D0004006609241067092420612FF0CC0109295
:1043E0003B0610923C0610923D0610923E06C12CF0
:1043F000D12C760124C0E0914F06EF5FE43209F43E
:10440000E0E08091E80D8E1759F026E32E9FF00131
:104410001124E05BF94FC688D788E08CF18C03C08B
:10442000C12CD12C7601C701B6010E949B3B609341
:104430003B0670933C0680933D0690933E06C10177
:104440000E94811E698B7A8B8B8B9C8B9B01AC01AC
:104450000E94FC3A69877A878B879C87A501940123
:104460000E949A3887FF6CC029853A854B855C8508
:10447000C501B4010E94A4372D813E814F8158852A
:104480000E94FC3A9B01AC01C301B2010E94A43717
:1044900060933F06709340068093410690934206D6
:1044A00020E030E0A9010E949A3818162CF132E081
:1044B00030932E0629813A814B815C81CA01B90172
:1044C0000E94A537A30192010E94FC3A9B01AC0116
:1044D000C501B4010E94A4370E949B3B60933B0638
:1044E00070933C0680933D0690933E0680911D0696
:1044F000886080931D06F5C0A701960169857A85BD
:104500008B859C850E94A4372D813E814F815885E3
:104510000E94FC3A609343067093440680934506DC
:104520009093460689899A89AB89BC89809337061E
:1045300090933806A0933906B0933A0693E0B6C03C
:10454000A7019601C501B4010E94A4372D813E81C7
:104550004F8158850E94FC3AA30192010E94A53721
:1045600020E030E040E05FE30E94FC3A6D877E8708
:104570008F87988B20E030E0A9010E94BC3A181682
:104580000CF097C02D853E854F855889C301B20137
:104590000E94BC3A18160CF088C0A70196016985E4
:1045A0007A858B859C850E94A4372D813E814F8121
:1045B00058850E94FC3A9B01AC01609343067093BE
:1045C000440680934506909346066D857E858F85CB
:1045D00098890E94BC3A1816BCF529893A894B89FA
:1045E0005C89209337063093380640933906509300
:1045F0003A06A501940169857A858B859C850E9480
:104600009A38811104C031E030932E066AC0A501AA
:10461000940169857A858B859C850E94A4372D81BC
:104620003E814F8158850E94FC3A9B01AC01C30139
:10463000B2010E94A43760933F06709340068093B6
:104640004106909342064DC08D859E85AF85B88901
:1046500080933F0690934006A0934106B093420694
:104660008093430690934406A0934506B093460674
:1046700029813A814B815C81CA01B9010E94A53729
:104680002D853E854F8558890E94FC3AA7019601E9
:104690000E94A5370E949B3B6093370670933806B3
:1046A0008093390690933A061CC092E090932E06B0
:1046B00018C010923F0610924006109241061092C8
:1046C000420680913B0690913C06A0913D06B09138
:1046D0003E068093370690933806A0933906B09330
:1046E0003A06186010932404E0917905F8E0EF9FF2
:1046F000D0011124BE8BAD8BFD01E75DFA4F809197
:104700001C0684832091EC0D3091ED0D3DAF2CAF54
:10471000D9019296BC91BBA3F901F3A1FCA3D901E5
:104720009496BC91BDA3F901F5A1FEA320912A06A0
:1047300030912B0640912C0650912D066BA17CA147
:104740008B2F9F2F0E94A4376FA778AB89AB9AABB2
:1047500020E030E0A9010E949A3887FF04C01FA61C
:1047600018AA19AA1AAA209137062F8B3091380659
:10477000388F40913906498F50913A065A8F80916F
:104780003F068B8F909140069C8FA0914106AD8F84
:10479000B0914206BE8FE0913306E983F091340672
:1047A000FD83209135062987309136063D8740915B
:1047B00043064FA35091440658A78091450689A708
:1047C000909146069AA7A0912E06A98BB0912F062C
:1047D000BBA7E0913006ECA7F0913106FDA7209130
:1047E00032062EA730913B063CAB40913C064DABC8
:1047F00050913D065EAB80913E068FAB2FA138A550
:1048000049A5592F6B8D7C8D8D8D9E8D0E949A3878
:10481000811103C092E09BAB02C0A1E0ABAB2BA027
:104820003CA00DA11EA18EE3C82E83ECD82E8EE2F3
:10483000E82E89E3F82E412C512C3201CF8ED8A2DC
:10484000E9A2FAA23989313009F4E8C0ACADBDADB6
:10485000313008F477C0333009F012C15E962D91E3
:104860003D914D915C919197C701B6010E94FC3A30
:104870004B015C012F89388D498D5A8D69817D816D
:1048800089859D850E94A4379B01AC01C501B401B7
:104890000E94BC3A87FD31C02B8D3C8D4D8D5E8DC5
:1048A0006BA17CA18DA19EA10E94A4379B01AC01AC
:1048B0000E94A5376B017C0129813D8149855D8579
:1048C0006F89788D898D9A8D0E94A5379B01AC01E7
:1048D000C701B6010E94A4386B017C01BF89B9836E
:1048E000E88DED83F98DF9872A8D2D872B8C3C8CF3
:1048F0000D8D1E8D31E0398B3DC120E030E040E070
:104900005FE3C501B4010E94FC3A9B01AC016981DF
:104910007D8189859D850E94A437A70196010E940B
:10492000FC3A9B01AC01B101C8010E94A4371B01F4
:104930008C01A501940169817D8189859D850E94F5
:10494000A43767C05E962D913D914D915C919197F2
:10495000C701B6010E94FC3A4B015C0120E030E047
:1049600040E05FE30E94FC3A29813D8149855D85F5
:104970000E94A537A70196010E94FC3A9B01AC0159
:10498000B101C8010E94A4371B018C019B01AC013D
:104990006B8D7C8D8D8D9E8D0E94BC3A18168CF58A
:1049A0002B8D3C8D4D8D5E8D6BA17CA18DA19EA12B
:1049B0000E94A4379B01AC010E94A5376B017C01CA
:1049C00029813D8149855D856F89788D898D9A8D95
:1049D0000E94A5379B01AC01C701B6010E94A43813
:1049E0006B017C01BBA9B98BEF89E983F88DFD834D
:1049F000298D29873A8D3D872B8C3C8C0D8D1E8D02
:104A0000B9C0A501940169817D8189859D850E9438
:104A1000A53769837D8389879D87ACC02F89388DB1
:104A2000498D5A8DC701B6010E94FC3A9B01AC0129
:104A3000B101C8010E94A4375B014C019B01AC018C
:104A40006FA178A589A59AA50E94BC3A18160CF00A
:104A50008FC02FA138A549A55AA5B101C8010E9450
:104A6000A4372F89388D498D5A8D0E94A4386B0147
:104A70007C012FA038A409A51AA542E0498B7AC071
:104A80005E962D913D914D915C919197C701B60134
:104A90000E94FC3A4B015C0129813D8149855D857D
:104AA0000E949A3887FF37C020E030E040E05FE3A3
:104AB000C501B4010E94FC3A9B01AC0169817D8172
:104AC00089859D850E94A437A70196010E94FC3A22
:104AD0009B01AC01B101C8010E94A43768AF79AF56
:104AE0008AAF9BAF2BA53CA54DA55EA50E94BC3A05
:104AF00018168CF4A501940169817D8189859D85B5
:104B00000E94A43769837D8389879D8728AC39AC4F
:104B10000AAD1BAD2FC02BA53CA54DA55EA5B101CF
:104B2000C8010E94A4379B01AC010E94A5376B010C
:104B30007C0129813D8149855D856CA97DA98EA96E
:104B40009FA90E94A5379B01AC01C701B6010E9435
:104B5000A4386B017C01BCA9B983EDA9ED83FEA942
:104B6000F9872FA92D872BA43CA40DA51EA502C053
:104B700015018401A7019601C301B2010E94A53766
:104B80002B013C012F8D38A149A15AA10E949A38CE
:104B900087FF07C0A30192016F8D78A189A19AA117
:104BA0001AC02FA538A949A95AA9B101C8010E9464
:104BB000BC3A181674F52EE333EC4EE259E36F8DD0
:104BC00078A189A19AA10E94A5376F8F78A389A3A4
:104BD0009AA3A30192010E94A4376B017C01910169
:104BE000A8016BA57CA58DA59EA50E949A3887FD7E
:104BF00029CE89819D81A985BD85809333069093B7
:104C00003406A0933506B0933606398930932E06C4
:104C10000FC089819D81A985BD85809333069093BE
:104C20003406A0933506B0933606498940932E0684
:104C3000E091EA0DF091EB0D9189911104C0809102
:104C4000240483FF43C0ACADBDAD51968C91519708
:104C5000807359F1D296CD90DD90ED90FC90D59770
:104C60009923D1F02091470630914806409149069A
:104C700050914A0660913306709134068091350652
:104C8000909136060E94FC3A9B01AC01C701B60127
:104C90000E94FC3A6B017C01C701B6010E9424030B
:104CA00090934C0680934B060CC010922D041092EA
:104CB0002E0410922F041092300410924C06109281
:104CC0004B0680912404877F8093240480914B06B7
:104CD00090914C06ED89FE89E75DFA4FFA87E987E6
:104CE00097838683209126063091270640912806D7
:104CF00050912906B101C8010E94FC3A69837A8368
:104D00008B839C830E9483386B017C016091220617
:104D10007091230680912406909125060E94833885
:104D20004B015C01A70196010E94A4370E941D3926
:104D30006D837E838F839887ED81FE81A985BA85F7
:104D4000ED93FC93EF2B41F48091240481FF04C088
:104D5000816080932404D9C020911E0630911F06E3
:104D60004091200650912106C301B2010E94A5374F
:104D70002B013C0129813A814B815C81C501B40141
:104D80000E94A4379B01AC01C301B2010E94A43868
:104D90004B015C0120EC31EE44E65EE40E94FC3AFB
:104DA0000E9483380E941D39ED89FE89E75DFA4F24
:104DB000603D37E073078105910510F4158230C01E
:104DC000603A4FE074078105910518F451E055836E
:104DD0000BC06034AFE17A078105910518F4B2E0A9
:104DE000B58302C023E02583ED89FE89E75DFA4F94
:104DF0002581022E04C096958795779567950A942C
:104E0000D2F74D815E8102C0440F551F2A95E2F70B
:104E1000518340836115710551E08507910538F490
:104E2000ED89FE89E75DFA4F7383628304C08FEFDB
:104E30009FEF938382838091E90D809379058F5F43
:104E40008A3019F08093E90D02C01092E90DE091CB
:104E5000EC0DF091ED0DC101D80182A393A3A4A3A1
:104E6000B5A3C0922206D0922306E0922406F092C7
:104E7000250629813A814B815C81C701B6010E94D8
:104E8000A437A50194010E94FC3A60931E0670931A
:104E90001F06809320069093210620912F063091C3
:104EA00030064091310650913206B101C8010E948E
:104EB0009A38811100C920E030E0A901B101C80190
:104EC0000E94BC3A90912404181614F092FF04C07A
:104ED00091609093240419C01092ED0D1092EC0D86
:104EE00090914F068091E80D891709F4E4C881E09C
:104EF000890F843209F480E020914D06921302C09C
:104F000080934D0680934F06D6C8ED960FB6F89461
:104F1000DEBF0FBECDBFDF91CF911F910F91FF90EC
:104F2000EF90DF90CF90BF90AF909F908F907F9049
:104F30006F905F904F903F902F900895CF93DF93A5
:104F4000C091EC0DD091ED0D2097C9F080911D0618
:104F5000816080931D0660913306709134068091C4
:104F60003506909136069B01AC010E94FC3A6E8B8F
:104F70007F8B888F998F1092ED0D1092EC0DDF9141
:104F8000CF9108952F923F924F925F926F927F92AE
:104F90008F929F92AF92BF92CF92DF92EF92FF9249
:104FA0000F931F93CF93DF933090E80D311002C021
:104FB000D4E201C0D32DD150C0914D06CD1709F4D4
:104FC00016C1ED2EF12C26E3D29F80011124005B47
:104FD000194FF801A28CB38CC48CD58C668D778D5B
:104FE00080A191A19B01AC010E94A537F80122A1EB
:104FF00033A144A155A10E94FC3A4B018C019B01B5
:10500000AC01B501C6010E949A3887FD02C0540167
:10501000680186E38E9DF0018F9DF00D1124E05B09
:10502000F94FC501D601868B978BA08FB18FD11117
:1050300001C0D4E2D150CD1307C080914F06C813F0
:1050400068C00E949E2765C026E32E9DC0012F9D4B
:10505000900D11249C01205B394F790196E3292E94
:10506000AD2EB12C2A9CC0012B9C900D1124FC016B
:10507000E05BF94F6F01D11101C0D4E2D1508091B2
:105080004F068D1302C00E949E272A9C80012B9CF4
:10509000100D1124005B194FF801828C938CA48CA5
:1050A000B58CA501940166897789808D918D0E94C8
:1050B0009A38882359F1F801668D778D80A191A1E6
:1050C0009B01AC010E94A537F80122A133A144A1A4
:1050D00055A10E94FC3AF70126893789408D518DF0
:1050E0000E94A5372B013C019B01AC01C501B40115
:1050F0000E94BC3AF80118162CF4468A578A608E32
:10510000718E04C0868A978AA08EB18E7601CD13E7
:10511000A7CFF6E3CF9F80011124005B194FCF5F2B
:10512000C43209F4C0E0D0914D0686E3282EC315A1
:1051300009F45BC0CC2ED12C2C9CC0012D9C900D71
:1051400011249C01205B394F7901F801468857886A
:10515000608C718CF90186889788A08CB18CA50130
:105160009401C301B2010E949A3887FF24C0F8015C
:10517000668D778D80A191A19B01AC010E94A5371E
:10518000F80122A133A144A155A10E94FC3AA30138
:1051900092010E94A5372B013C019B01AC01C50186
:1051A000B4010E94BC3A181634F4F701468A578AB3
:1051B000608E718EDC2F2C9CF0012D9CF00D112443
:1051C000E05BF94F228D338D448D558D668977894B
:1051D000808D918D0E949A38811101C0DC2FCF5FA4
:1051E000C43209F4C0E08701A2CFD0934D06DF910D
:1051F000CF911F910F91FF90EF90DF90CF90BF90D4
:10520000AF909F908F907F906F905F904F903F9066
:105210002F9008952F923F924F925F926F927F92BC
:105220008F929F92AF92BF92CF92DF92EF92FF92B6
:105230000F931F93CF93DF93CDB7DEB7C454D1093B
:105240000FB6F894DEBF0FBECDBF7B010091E80D15
:10525000202E312C26E3229DA001239D500D1124E8
:10526000BA01605B794F7EAB6DABFB0111922A9561
:10527000E9F7F7012485FB01218BF7014481558172
:1052800066817781EDA9FEA942AB53AB64AB75ABE8
:10529000F7014085518562857385EDA9FEA9428B92
:1052A000538B648B758B21FF40C02CE0E7E0F4E06A
:1052B000DE01599601900D922A95E1F78BAB9CABDC
:1052C00021E334E038AF2FABBE01635F7F4F2396FD
:1052D0007FAF6EAF2397CE01499621969FAF8EAFD9
:1052E0002197E6E30E9FC00111249C01205B394FFA
:1052F0003EAF2DAF685E7F4F7CAF6BAF7AAF69AFCB
:1053000010E086E3829D9001839D300D1124C90138
:10531000805B994FFC013C962596FFAFEEAF259739
:105320006C01F0E1CF0ED11C3CC02CE0EEEEFDE0B4
:10533000BFCFEDADFEAD2193319341935193FEAFBD
:10534000EDAF2596EEADFFAD259780809180A280D0
:10535000B38082169306A406B50610F449015A01DB
:105360002596EEADFFAD259780829182A282B38211
:105370000E944E39A30192010E94A438E9ADFAAD12
:105380006193719381939193FAAFE9AF20E030E09C
:10539000A9010E949A3887FD42C01F5F133009F4AB
:1053A0004CC0EBA9FCA96191719181919191FCABE9
:1053B000EBABEFA9F8AD4190519061907190F8AFCF
:1053C000EFABA30192010E94FC3A0E94C93A2396D6
:1053D000EEADFFAD239761937193819391932396E3
:1053E000FFAFEEAF23972196EEADFFAD21978190F1
:1053F0009190A190B1902196FFAFEEAF21976819DF
:1054000079098A099B099B01AC0197FF92CF22275A
:105410003327A901261B370B480B590B8ACF1123C1
:1054200021F0113021F080E203C080E801C080E467
:10543000F6019081892B8083B0CF89288A288B2818
:1054400009F496C1CE0185960E9484334B015C011C
:1054500026E3229DC001239D900D11249C01205B19
:10546000394F6901F90182A293A2A4A2B5A2BE019B
:105470006B5D7F4F89E494E00E942E33F601668FC6
:10548000778F80A391A3BE016B5D7F4F8DE394E086
:105490000E942E33F60162A773A784A795A71189EE
:1054A00010FD12C0F701208131814281538113FD2B
:1054B00006C0F60126A737A740AB51AB09C0C5010E
:1054C000B4010E94FC3AF60166A777A780AB91ABC6
:1054D00080914F06081711F011FF0DC086E3829DE1
:1054E000F001839DF00D1124E05BF94F168A178AB5
:1054F000108E118E54C02AEF3DE03CAB2BAB8E01D9
:105500000F5F1F4FBE016F5C7F4F7AAB69ABC12C41
:10551000D12C76010FAB19AFEBA9FCA9819091902A
:10552000A190B190FCABEBABEBADFCAD41905190D9
:1055300061907190FCAFEBAFA3019201C501B40182
:105540000E94FC3A9B01AC01C701B6010E94A4373E
:105550006B017C01A5019401C301B2010E94A43733
:10556000F80161937193819391938F0129A93AA9CD
:105570006BAD7CAD2617370779F62FEE3FEF4FE77F
:105580005FE3C701B6010E94BC3A18166CF486E3CB
:10559000829DF001839DF00D1124E05BF94F16A26E
:1055A00017A210A611A671C02FEE3FEF4FE75FEBD9
:1055B000C701B6010E949A3887FF11C086E3829D19
:1055C000F001839DF00D1124E05BF94F89E996E726
:1055D000A6E9BEE786A397A3A0A7B1A756C08FA947
:1055E00099AD0E9484336FA979AD89E494E00E945B
:1055F0002E334B015C01A701960160E070E080E86A
:105600009FE30E94A43720E030E040E05FE30E9487
:10561000FC3A0E949B3B6B017C0120916604309117
:1056200067044091680450916904C501B4010E9467
:10563000FC3AA70196010E94FC3A4B015C01A701CC
:10564000960160E070E080E89FE30E94A4379B0130
:10565000AC01C501B4010E94A4386B017C0120E0BB
:1056600030E0A9010E949A3887FF03C0C12CD12CD9
:10567000760186E3829DF001839DF00D1124E05BAD
:10568000F94FC6A2D7A2E0A6F1A686E3829D8001CB
:10569000839D100D1124005B194FF801818981FD54
:1056A00069C08DA99EA90E94811E6B017C0180901A
:1056B000060E9090070EA090080EB090090EA5015E
:1056C00094010E94BC3A18162CF4A5019401C5015E
:1056D000B40104C0A7019601C701B6010E94FC3ABB
:1056E000F801628F738F848F958F86E3829D80018E
:1056F000839D100D1124005B194FF80186A097A01F
:10570000A0A4B1A4A5019401628D738D848D958DA3
:105710000E94BC3A18162CF4F801828E938EA48E47
:10572000B58EC092060ED092070EE092080EF0924F
:10573000090E8CE0FE01B596AAEFBDE001900D9236
:105740008A95E1F78CE0FE013D96AEEEBDE001905A
:105750000D928A95E1F780914E068093E80D8F5F58
:10576000843209F480E080934E060E94C22702C072
:1057700080E001C081E0CC5BDF4F0FB6F894DEBF64
:105780000FBECDBFDF91CF911F910F91FF90EF9092
:10579000DF90CF90BF90AF909F908F907F906F9051
:1057A0005F904F903F902F900895CF93DF930E948A
:1057B0005C3481E3ECE1F6E0DF011D928A95E9F7C4
:1057C000C5E0D5E083E2FE0111928A95E9F71092D7
:1057D000ED0D1092EC0D109228051092790581E0E4
:1057E0008093E90D109204050E942B3480910305EB
:1057F0008F8782B1837E90910205892B82B988B10F
:105800008F7190910305892B88B9DF91CF9108950D
:10581000CF93DF93CFE0DEE08991882319F00E94D7
:10582000F202FACFDF91CF910895CF93DF9321E079
:1058300031E0482F429FC001439F900D1124EC019D
:10584000DD5F40E051E0BE018FE09EE00E94D81F86
:10585000892B69F410920F0E0E94B60240E051E0CD
:105860006FE07EE0CE010E94151F80E001C081E064
:10587000DF91CF9108951F920F920FB60F921124CE
:105880008F9380910E0E8F5F80930E0E8F910F90ED
:105890000FBE0F901F9018959FB7F89420910D0E92
:1058A000822B80930D0E9FBF08959FB7F89420918F
:1058B0000C0E822B80930C0E9FBF08959FB7F89417
:1058C00080930B0E9FBF08952FB7F89490910A0E06
:1058D0008095892380930A0E2FBF08959FB7F8946F
:1058E00020910A0E822B80930A0E9FBF0895AF92DB
:1058F000BF92CF92DF92EF92FF920F931F93CF93BD
:10590000DF93EC0105E514E05C018CE0A80EB11C0E
:10591000C990D990E990F99020E030E0A901C70141
:10592000B6010E94BC3A18168CF0F8012191319111
:10593000419151918F01C701B6010E949A3887FDAC
:1059400005C0CA15DB0521F780E001C081E0DF91C9
:10595000CF911F910F91FF90EF90DF90CF90BF906C
:10596000AF9008958F929F92AF92BF92CF92DF92A5
:10597000EF92FF920F931F93CF93DF93EB0121E3FD
:10598000E22E24E0F22E8C016B018CE0C80ED11CBB
:105990006991799189919991F70181909190A19064
:1059A000B1907F010E944E39A50194010E94A43854
:1059B000F80161937193819391938F01CC15DD056B
:1059C00039F7DF91CF911F910F91FF90EF90DF900A
:1059D000CF90BF90AF909F908F9008950E94B60295
:1059E00010922C04089593B1892F807F61F08095E7
:1059F000881F8827881F94FF826095FF846096FD2A
:105A000003C08860089580E008951F920F920FB63A
:105A10000F9211240BB60F922F933F934F935F93E6
:105A20006F937F938F939F93AF93BF93EF93FF9366
:105A30000E94F32C8823C1F081FF03C00E9422043E
:105A400013C083FF04C080910A0E82600BC082FFE6
:105A500004C080910A0E886005C080FF05C0809157
:105A60000A0E806280930A0EFF91EF91BF91AF9171
:105A70009F918F917F916F915F914F913F912F9166
:105A80000F900BBE0F900FBE0F901F9018951092A5
:105A900006049091760497FD03C091E0909306046C
:105AA000882331F09091060481E0892780930604D1
:105AB00008958F929F92AF92BF92CF92DF92EF9212
:105AC000FF920F931F93CF93DF93CDB7DEB72D9740
:105AD0000FB6F894DEBF0FBECDBF6B017C01042F63
